:020000040000fa
:080000000002040000000000f2
:020000040000fa
:100400006f872000007f24000001880000000000aa
:100410000a00070011000700000020000000e000b3
:10042000020032000000020000000000c45d020073
:10043000000000000040da000000fe004440a90077
:10044000a00024000000e0000300320000002000b3
:10045000a00188004440a8000000060000532600c8
:10046000010020001500370062004000e0804800d5
:10047000910188009001ba0062004000e0804800cd
:10048000910188009002ba0062004000e0804800bc
:100490000002eb006028e10004003a000059eb0084
:1004a0008301e900fdff3e00040037006128e10000
:1004b000010032000082eb00050007009101880076
:1004c0001001ba000200e000e7ff3a00000005005a
:1004d000910188008002780062004000e0804800be
:1004e0003559ba008301e900080032002559ba00e5
:1004f0008301e900050032000400e000f4ff32004f
:1005000015d9ba008301e900f1ff3a0000000600a6
:10051000811f78000100e00002003d006000100033
:10052000e08018000300e00002003d0060011100bf
:10053000e0811900ed0107004f00e00002003b00e0
:1005400060001000e080180000000600839f680033
:100550000100e00002003d0060001000e080180093
:100560000300e00002003d0060011100e08119007d
:10057000e10107004f00e00002003b0060001000b6
:10058000e080180000000600889fbe008a9fbe0021
:10059000030578000300e000050035000b003c0077
:1005a0000082700004027100300032000700370042
:1005b00060001000e080180060011900e08119005f
:1005c00002003b0001f02d00280037000004be00af
:1005d0000200be006011b8006b09200095022000e7
:1005e0000182cf000a0039000541b1000082cf002e
:1005f000070039000541b1000982cf00040039002d
:100600000541b1000882cf00010039000541b10069
:1006100005425200120032000a003b008281710044
:10062000610164008100d1000080d3008984d3007f
:100630000884d3008b05e8000442e800f7ff3a0085
:10064000070037000804440089844c00000048007b
:10065000818048008b05e9000442e900f9ff3a0077
:10066000b50107000af0a70001f0a0004f05be0089
:100670004f04be0000000600889fbe008a9fbe0097
:100680008c1f7800d2010700d901330003866c006b
:100690006450e1002e0032006420e100330032009b
:1006a0006150e1002f0032006120e1003100320092
:1006b00085855500eb07b0000900200008042000e4
:1006c000050037000804440089844c000a0031000a
:1006d0000603430087834b000001530081815b00c8
:1006e000f8ff33000203be000800a0000804440025
:1006f00089844c00f6ff3900c639dd0083017300a0
:1007000001003200130020008904d1000884d300c6
:100710000998a300050032000800a7000300a0000c
:100720008904d1000884d3008b05e8008904d10036
:100730000884d3000001eb000281d2007e01070093
:1007400001f0a1000cf0a70001f0a000b1013700fa
:100750006420e100b30132000801be000200be00c7
:10076000f7ff37006120e100ae0132006000b80001
:10077000f3ff37000000200001f82700f0ff3700ea
:100780000001be00aa0107000470a70003f0a10049
:100790006509b100160032000d0035006828e1003f
:1007a00006003500f0ff2f00f1ff27000300e000f6
:1007b00013003b000100280000000500000040007d
:1007c000818048008502e900fcff3a0008003700fc
:1007d000f88f420002003c008000eb0000000500a2
:1007e0008100d1000080d3008502e800fcff3a00c0
:1007f0000300e00002003b0060001000e0801800f1
:1008000000000600889fbe008a9fbe000105780098
:100810000100e0000400350008003c000000e0009a
:10082000200032000500370060001000e080180052
:1008300002003b0001f02c001a0037000004be004b
:100840006011b8006b0920000982cf000200390056
:100850000882cf000441b000694252000e0032000d
:1008600008003b0082817100610164008904d100ad
:100870000884d3008b05e8000442e800f9ff3a0041
:10088000050037000804440089844c008b05e9000a
:100890000442e900fbff3a00270107000af0a70025
:1008a00001f0a0004f05be004f04be00000006008e
:1008b000889fbe008a9fbe008c1f780044010700fd
:1008c0004b01330003866c006450e10024003200c9
:1008d0006420e100270032006150e1002200320074
:1008e0006120e100210032008b854200eb07b1005e
:1008f0000134b800003ab8000804420089844a0074
:10090000013ab8000030b8008880400009014a0070
:1009100004003300000040008180480002014900cb
:100920008b05e900c909dd00830170000100320078
:1009300013002000c814de004814dd004709de0063
:100940001200b200c808de0008847000fa00070038
:1009500001f0a1000cf0a70001f0a0002d0137006c
:100960006120e1002f0132000801be000200be003c
:10097000f7ff37006150e100fcff3a002901370022
:1009800003f0a200889fbe008a9fbe008c1f7800e3
:100990000f010700160133006450e1004f003200e0
:1009a0006420e1005200320003826c0007003b002b
:1009b0000905d0000306d000820f54000c065d002c
:1009c0000200390002003200890178000306780035
:1009d0008582550004003d000003fd008103fd00f9
:1009e0008502ea008b854200840f720002003b0002
:1009f00060001000e08018006011b8000005eb00f6
:100a00007a28e1000a00390006007800c75ddd00a1
:100a1000f707b200878075002d00370082817100d2
:100a20000a017800610560008180d1000080d30058
:100a30008502e900f9ff3b00060440008784480076
:100a400002003b0060041400e0841c000988a3003d
:100a5000070032008a8171008281710061016400a7
:100a60008904d1000884d3008b05e8001700370003
:100a70000978a30013003a000b00e00013003400d3
:100a80008b05e9000804440089844c000a44740082
:100a90000978a3000d003a000b00e00007003400c5
:100aa0008b05e9000804440089844c0001003a00e9
:100ab0000b0020000978a300f7ff32000001eb00d3
:100ac00002003700828171000a0178009a00070055
:100ad0000cf0a70001f0a000ce0037006420e10078
:100ae00002003a00838f6c00ce0033000801be0084
:100af0000200be00c70037000003be00cc000700a4
:100b00006011b8000470a70007f0a1006509b100ea
:100b10001b00320012003500860220000628e1008a
:100b200008003500f3ff2700f2ff2f006110b90025
:100b30000700e00018003b00030028006000b80038
:100b400002000500000040008180480002014900c9
:100b5000838149008502e900faff3a000800370066
:100b6000f88f420002003c008000eb00000005000e
:100b70008100d1000080d3008502e800fcff3a002c
:100b80000700e00004003b0060001000e080180057
:100b900060011900e081190000000600889fbe0076
:100ba0008a9fbe008c1f7800890007001002200079
:100bb00002003b00a04388008d0037008a006200dd
:100bc0006408e10002003a00a04388009500370065
:100bd0006108e100fcff32000800be000304780059
:100be000a5fe070001f0a100a600070008f0a6007e
:100bf000040037000001be0091042400b0fd200075
:100c00005fff070009f0a70001f0a2008100370094
:100c1000889fbe008a9fbe008c1f78000004be0023
:100c2000830007000478a30026003a006120e10059
:100c30002500320009f8a30025003a006420e100f5
:100c400021003200f507b1000508a30002003200c0
:100c500000004000818048006044b800031020007c
:100c60000200200000004000818048000805440088
:100c700089854c000a0541008b8549000a05500012
:100c80008b855800030033000a00be000204740084
:100c9000838474008301d1000281d300830f71002b
:100ca000f0ff3a008904d1000884d30060014900b4
:100cb00082017800c1adde00fb07b0001e00070016
:100cc000540037000960a0000800be005100370042
:100cd00012022000a2438800f0ff2f00f1ff27003e
:100ce0004c00370014002000cb0037000200070042
:100cf0000400be00000006006022b80006022000ca
:100d00000000d0008180d2000482d2008582d2000f
:100d10000000a0000202520083825a00030031004a
:100d20000202420083824a000000a1000603e9009b
:100d3000f3ff3a00000006008100200061805500aa
:100d40000b003d000b00200061fe2f000100e100c0
:100d50001d00340082817100610164008904d100aa
:100d60000884d3000000e800faff3a007100200078
:100d7000610064000300700002006000090032009e
:100d800061044400e0844c000988a500050032009d
:100d90008b05e8006808e10002003a008904d100f0
:100da0000884d300f20f20000258e10005003d0046
:100db000c75ddd00f907b200898075000800780082
:100dc000000006000bf827008b00780000000500eb
:100dd0000004be00160007000003be000405be00ac
:100de0000200be0012000700844f750000000600dc
:100df0000200be006450e100050036006420e100fe
:100e0000020036000968a30001003a000800be0095
:100e10000160a0004f0678004f05be004f04be00e1
:100e200000000600f0ff2f00f1ff2700f9ff370058
:100e3000c70ade00f107b200f50fb2000800320069
:100e4000e1cf4200020032000170a0002400050042
:100e5000810f700001003200040805004400050005
:100e6000810f700002003a00140005008502e900bd
:100e70000000400081c04800fcff3b000170a00062
:100e800024000500889fbe008a9fbe008c9fbe0084
:100e90000004be00e6ff07000800be0089067800d7
:100ea0006420e10008003900040032000160a00065
:100eb00012022000a24388005300370091fc230057
:100ec000b0fd20004e0037000006eb0009f0a10045
:100ed00003f82300020020000800be0081ff070085
:100ee0000600340001f82300000020000801be00c5
:100ef000e1fd07000004be002c0020000800be0039
:100f000093e82300320a230076ff07001200340022
:100f10000801be00d1fd2300703d2b0099fe0700a3
:100f20000005be00b3f32300f27a26000800be00dd
:100f30005ffe070003f823000200200090fe070078
:100f40000801be008ffe07000a01be00cafd0700af
:100f50000004be000c06e8000800be0001f0a1007d
:100f600002002000039823005eff07000800be0077
:100f7000160035000801be004dfe07000005be004a
:100f800032cd2c0043fb23007efe0700809fbe0075
:100f90001269280003d52b000a00be0044fe07009a
:100fa000620f210013ef2b0076fe07000a01be003e
:100fb0003ffe07004f01be00affd07000801be0065
:100fc0003bfe07000801be006efe07000c00e000bb
:100fd0000b0032000c10a70001f0a200b2fd2000af
:100fe00093fc23006260e1000400320022a920008b
:100ff00063f023000c10a70063f8230061fe0700d4
:101000000df0a70001f0a2004f06be004f05be0084
:101010004f04be0000000600889fbe008a9fbe00ed
:10102000841f78006aff07004f007800110033002a
:10103000f0ff2f00838f6c0006003b000405650065
:101040000a00a7000800370009f0a60010002000e1
:1010500008003700820f5400838f5c0003003900c2
:101060001000200001003e000000200009f0a70051
:101070000000ea004f05be004f04be000000e00083
:10108000000006000000fa009460a90005e1a90034
:0c1090008460a9000080fa000000060047
:020000040000fa
:0200000401f009
:04000c00f9ff0000f8
:020000040000fa
:0200000401f009
:040014007fff00006a
:020000040000fa
:1000080066650000666500006665000066650000bc
:1000180066650000666500006665000066650000ac
:10002800666500006665000066650000ca58000045
:10003800666500006665000066650000666500008c
:10004800666500006665000066650000666500007c
:10005800666500006665000066650000666500006c
:10006800666500006665000066650000666500005c
:10007800666500006665000066650000666500004c
:10008800666500006665000066650000666500003c
:10009800666500006665000066650000666500002c
:1000a800666500006665000066650000666500001c
:1000b800666500006665000066650000666500000c
:1000c80066650000666500006665000066650000fc
:1000d80066650000666500006665000066650000ec
:1000e80066650000666500006665000066650000dc
:1000f80066650000666500006665000066650000cc
:1001080066650000666500006665000066650000bb
:1001180066650000666500006665000066650000ab
:10012800666500006665000066650000666500009b
:10013800666500006665000066650000666500008b
:10014800666500006665000066650000666500007b
:10015800666500006665000066650000666500006b
:10016800666500006665000066650000666500005b
:10017800666500006665000066650000666500004b
:10018800666500006665000066650000666500003b
:10019800666500006665000066650000666500002b
:1001a800666500006665000066650000666500001b
:1001b800666500006665000066650000666500000b
:1001c80066650000666500006665000066650000fb
:1001d80066650000666500006665000066650000eb
:1001e80066650000666500006665000066650000db
:0801f800666500006665000069
:020000040000fa
:1002080066650000666500006665000066650000ba
:1002180066650000666500006665000066650000aa
:10022800666500006665000066650000ca58000043
:10023800666500006665000066650000666500008a
:10024800666500006665000066650000666500007a
:10025800666500006665000066650000666500006a
:10026800666500006665000066650000666500005a
:10027800666500006665000066650000666500004a
:10028800666500006665000066650000666500003a
:10029800666500006665000066650000666500002a
:1002a800666500006665000066650000666500001a
:1002b800666500006665000066650000666500000a
:1002c80066650000666500006665000066650000fa
:1002d80066650000666500006665000066650000ea
:1002e80066650000666500006665000066650000da
:1002f80066650000666500006665000066650000ca
:1003080066650000666500006665000066650000b9
:1003180066650000666500006665000066650000a9
:100328006665000066650000666500006665000099
:100338006665000066650000666500006665000089
:100348006665000066650000666500006665000079
:100358006665000066650000666500006665000069
:100368006665000066650000666500006665000059
:100378006665000066650000666500006665000049
:100388006665000066650000666500006665000039
:100398006665000066650000666500006665000029
:1003a8006665000066650000666500006665000019
:1003b8006665000066650000666500006665000009
:1003c80066650000666500006665000066650000f9
:1003d80066650000666500006665000066650000e9
:1003e80066650000666500006665000066650000d9
:0803f800666500006665000067
:020000040000fa
:10109c0000000000060000000c0000001200000020
:1010ac00190000001f000000250000002b000000ac
:1010bc0032000000380000003e0000004500000037
:1010cc004b00000051000000570000005e000000c3
:1010dc00640000006a00000071000000770000004e
:1010ec007d000000830000008a00000090000000da
:1010fc00960000009d000000a3000000a900000065
:10110c00af000000b6000000bc000000c2000000f0
:10111c00c9000000cf000000d5000000db0000007b
:10112c00e2000000e8000000ee000000f500000006
:10113c00fb00000001010000070100000e0100008f
:10114c00140100001a010000210100002701000019
:10115c002d010000330100003a01000040010000a5
:10116c00460100004c010000530100005901000031
:10117c005f010000660100006c01000072010000bc
:10118c00780100007f010000850100008b01000048
:10119c0092010000980100009e010000a4010000d3
:1011ac00ab010000b1010000b7010000be0100005e
:1011bc00c4010000ca010000d0010000d7010000ea
:1011cc00dd010000e3010000ea010000f001000075
:1011dc00f6010000fc0100000302000009020000ff
:1011ec000f020000160200001c0200002202000088
:1011fc00280200002f020000350200003b02000014
:10120c0042020000480200004e020000540200009e
:10121c005b02000061020000670200006d0200002a
:10122c00740200007a0200008002000087020000b5
:10123c008d0200009302000099020000a002000041
:10124c00a6020000ac020000b3020000b9020000cc
:10125c00bf020000c5020000cc020000d202000058
:10126c00d8020000df020000e5020000eb020000e3
:10127c00f1020000f8020000fe020000040300006e
:10128c000b03000011030000170300001d030000f6
:10129c00240300002a030000300300003603000082
:1012ac003d0300004303000049030000500300000d
:1012bc00560300005c030000620300006903000099
:1012cc006f030000750300007c0300008203000024
:1012dc00880300008e030000950300009b030000b0
:1012ec00a1030000a8030000ae030000b40300003b
:1012fc00ba030000c1030000c7030000cd030000c7
:10130c00d4030000da030000e0030000e603000051
:10131c00ed030000f3030000f9030000ff030000dd
:10132c00060400000c040000120400001904000064
:10133c001f040000250400002b04000032040000f0
:10134c00380400003e040000450400004b0400007b
:10135c0051040000570400005e0400006404000007
:10136c006a04000070040000770400007d04000093
:10137c00830400008a04000090040000960400001e
:10138c009c040000a3040000a9040000af040000aa
:10139c00b6040000bc040000c2040000c804000035
:1013ac00cf040000d5040000db040000e2040000c0
:1013bc00e8040000ee040000f4040000fb0400004c
:1013cc0001050000070500000d05000014050000d4
:1013dc001a05000020050000270500002d0500005f
:1013ec0033050000390500004005000046050000eb
:1013fc004c05000053050000590500005f05000076
:10140c00650500006c050000720500007805000001
:10141c007e050000850500008b050000910500008d
:10142c00980500009e050000a4050000aa05000018
:10143c00b1050000b7050000bd050000c4050000a3
:10144c00ca050000d0050000d6050000dd0500002f
:10145c00e3050000e9050000ef050000f6050000bb
:10146c00fc05000002060000090600000f06000043
:10147c00150600001b0600002206000028060000ce
:10148c002e060000340600003b060000410600005a
:10149c00470600004e060000540600005a060000e5
:1014ac0060060000670600006d0600007306000071
:1014bc007a06000080060000860600008c060000fc
:1014cc0093060000990600009f060000a506000088
:1014dc00ac060000b2060000b8060000bf06000013
:1014ec00c5060000cb060000d1060000d80600009f
:1014fc00de060000e4060000ea060000f10600002b
:10150c00f7060000fd060000040700000a070000b3
:10151c0010070000160700001d070000230700003d
:10152c00290700002f070000360700003c070000c9
:10153c0042070000490700004f0700005507000054
:10154c005b07000062070000680700006e070000e0
:10155c00740700007b07000081070000870700006c
:10156c008e070000940700009a070000a0070000f7
:10157c00a7070000ad070000b3070000b907000083
:10158c00c0070000c6070000cc070000d30700000e
:10159c00d9070000df070000e5070000ec0700009a
:1015ac00f2070000f8070000fe0700000508000025
:1015bc000b08000011080000180800001e080000ad
:1015cc00240800002a080000310800003708000039
:1015dc003d080000430800004a08000050080000c5
:1015ec00560800005c080000630800006908000051
:1015fc006f080000760800007c08000082080000dc
:10160c00880800008f080000950800009b08000067
:10161c00a1080000a8080000ae080000b4080000f3
:10162c00bb080000c1080000c7080000cd0800007e
:10163c00d4080000da080000e0080000e60800000a
:10164c00ed080000f3080000f9080000ff08000096
:10165c00060900000c09000012090000190900001d
:10166c001f090000250900002b09000032090000a9
:10167c00380900003e090000440900004b09000035
:10168c0051090000570900005d09000064090000c1
:10169c006a09000070090000770900007d0900004c
:1016ac0083090000890900009009000096090000d8
:1016bc009c090000a2090000a9090000af09000064
:1016cc00b5090000bb090000c2090000c8090000f0
:1016dc00ce090000d4090000db090000e10900007c
:1016ec00e7090000ee090000f4090000fa09000007
:1016fc00000a0000070a00000d0a0000130a00008f
:10170c00190a0000200a0000260a00002c0a00001a
:10171c00320a0000390a00003f0a0000450a0000a6
:10172c004c0a0000520a0000580a00005e0a000031
:10173c00650a00006b0a0000710a0000770a0000bd
:10174c007e0a0000840a00008a0a0000900a000049
:10175c00970a00009d0a0000a30a0000a90a0000d5
:10176c00b00a0000b60a0000bc0a0000c20a000061
:10177c00c90a0000cf0a0000d50a0000dc0a0000ec
:10178c00e20a0000e80a0000ee0a0000f50a000078
:10179c00fb0a0000010b0000070b00000e0b000001
:1017ac00140b00001a0b0000200b0000270b00008c
:1017bc002d0b0000330b0000390b0000400b000018
:1017cc00460b00004c0b0000520b0000590b0000a4
:1017dc005f0b0000650b00006b0b0000720b000030
:1017ec00780b00007e0b0000850b00008b0b0000bb
:1017fc00910b0000970b00009e0b0000a40b000047
:10180c00aa0b0000b00b0000b70b0000bd0b0000d2
:10181c00c30b0000c90b0000d00b0000d60b00005e
:10182c00dc0b0000e20b0000e90b0000ef0b0000ea
:10183c00f50b0000fb0b0000020c0000080c000074
:10184c000e0c0000140c00001b0c0000210c0000fe
:10185c00270c00002d0c0000340c00003a0c00008a
:10186c00400c0000460c00004d0c0000530c000016
:10187c00590c00005f0c0000660c00006c0c0000a2
:10188c00720c0000780c00007f0c0000850c00002e
:10189c008b0c0000910c0000980c00009e0c0000ba
:1018ac00a40c0000aa0c0000b10c0000b70c000046
:1018bc00bd0c0000c30c0000ca0c0000d00c0000d2
:1018cc00d60c0000dd0c0000e30c0000e90c00005d
:1018dc00ef0c0000f60c0000fc0c0000020d0000e8
:1018ec00080d00000f0d0000150d00001b0d000071
:1018fc00210d0000280d00002e0d0000340d0000fd
:10190c003a0d0000410d0000470d00004d0d000088
:10191c00530d00005a0d0000600d0000660d000014
:10192c006c0d0000720d0000790d00007f0d0000a1
:10193c00850d00008b0d0000920d0000980d00002d
:10194c009e0d0000a40d0000ab0d0000b10d0000b9
:10195c00b70d0000bd0d0000c40d0000ca0d000045
:10196c00d00d0000d60d0000dd0d0000e30d0000d1
:10197c00e90d0000ef0d0000f60d0000fc0d00005d
:10198c00020e0000080e00000f0e0000150e0000e5
:10199c001b0e0000210e0000280e00002e0e000071
:1019ac00340e00003a0e0000410e0000470e0000fd
:1019bc004d0e0000530e00005a0e0000600e000089
:1019cc00660e00006c0e0000730e0000790e000015
:1019dc007f0e0000850e00008c0e0000920e0000a1
:1019ec00980e00009e0e0000a50e0000ab0e00002d
:1019fc00b10e0000b70e0000bd0e0000c40e0000ba
:101a0c00ca0e0000d00e0000d60e0000dd0e000045
:101a1c00e30e0000e90e0000ef0e0000f60e0000d1
:101a2c00fc0e0000020f0000080f00000f0f00005a
:101a3c00150f00001b0f0000210f0000280f0000e5
:101a4c002e0f0000340f00003a0f0000410f000071
:101a5c00470f00004d0f0000530f0000590f0000fe
:101a6c00600f0000660f00006c0f0000720f00008a
:101a7c00790f00007f0f0000850f00008b0f000016
:101a8c00920f0000980f00009e0f0000a40f0000a2
:101a9c00ab0f0000b10f0000b70f0000bd0f00002e
:101aac00c30f0000ca0f0000d00f0000d60f0000bb
:101abc00dc0f0000e30f0000e90f0000ef0f000047
:101acc00f50f0000fc0f00000210000008100000d1
:101adc000e100000151000001b100000211000005b
:101aec00271000002d100000341000003a100000e8
:101afc0040100000461000004d1000005310000074
:101b0c00591000005f100000661000006c100000ff
:101b1c0072100000781000007e100000851000008c
:101b2c008b10000091100000971000009e10000018
:101b3c00a4100000aa100000b0100000b7100000a4
:101b4c00bd100000c3100000c9100000cf10000031
:101b5c00d6100000dc100000e2100000e8100000bd
:101b6c00ef100000f5100000fb1000000111000048
:101b7c00071100000e110000141100001a110000d2
:101b8c0020110000271100002d110000331100005e
:101b9c003911000040110000461100004c110000ea
:101bac0052110000581100005f1100006511000077
:101bbc006b11000071110000781100007e11000003
:101bcc00841100008a110000901100009711000090
:101bdc009d110000a3110000a9110000b01100001c
:101bec00b6110000bc110000c2110000c8110000a9
:101bfc00cf110000d5110000db110000e111000035
:101c0c00e8110000ee110000f4110000fa110000c0
:101c1c0000120000071200000d1200001312000049
:101c2c001912000020120000261200002c120000d5
:101c3c0032120000381200003f1200004512000062
:101c4c004b12000051120000581200005e120000ee
:101c5c00641200006a12000070120000771200007b
:101c6c007d12000083120000891200008f12000008
:101c7c00961200009c120000a2120000a812000094
:101c8c00af120000b5120000bb120000c112000020
:101c9c00c7120000ce120000d4120000da120000ad
:101cac00e0120000e6120000ed120000f31200003a
:101cbc00f9120000ff120000061300000c130000c4
:101ccc0012130000181300001e130000251300004f
:101cdc002b13000031130000371300003d130000dc
:101cec00441300004a130000501300005613000068
:101cfc005d13000063130000691300006f130000f4
:101d0c00751300007c130000821300008813000080
:101d1c008e130000941300009b130000a11300000d
:101d2c00a7130000ad130000b3130000ba1300009a
:101d3c00c0130000c6130000cc130000d213000027
:101d4c00d9130000df130000e5130000eb130000b3
:101d5c00f2130000f8130000fe130000041400003e
:101d6c000a14000011140000171400001d140000c8
:101d7c002314000029140000301400003614000055
:101d8c003c14000042140000481400004f140000e2
:101d9c00551400005b14000061140000671400006f
:101dac006e140000741400007a14000080140000fb
:101dbc00861400008d140000931400009914000088
:101dcc009f140000a5140000ac140000b214000015
:101ddc00b8140000be140000c4140000cb140000a2
:101dec00d1140000d7140000dd140000e31400002f
:101dfc00ea140000f0140000f6140000fc140000bb
:101e0c0002150000091500000f1500001515000043
:101e1c001b15000021150000281500002e150000d0
:101e2c00341500003a15000040150000471500005d
:101e3c004d15000053150000591500005f150000ea
:101e4c00661500006c150000721500007815000076
:101e5c007e150000851500008b1500009115000003
:101e6c00971500009d150000a3150000aa15000091
:101e7c00b0150000b6150000bc150000c21500001e
:101e8c00c9150000cf150000d5150000db150000aa
:101e9c00e1150000e8150000ee150000f415000037
:101eac00fa15000000160000071600000d160000c1
:101ebc0013160000191600001f160000251600004e
:101ecc002c16000032160000381600003e160000da
:101edc00441600004b160000511600005716000067
:101eec005d160000631600006a16000070160000f4
:101efc00761600007c160000821600008816000082
:101f0c008f160000951600009b160000a11600000d
:101f1c00a7160000ae160000b4160000ba1600009a
:101f2c00c0160000c6160000cc160000d316000028
:101f3c00d9160000df160000e5160000eb160000b5
:101f4c00f2160000f8160000fe1600000417000040
:101f5c000a17000010170000171700001d170000cb
:101f6c0023170000291700002f1700003617000058
:101f7c003c17000042170000481700004e170000e5
:101f8c00541700005b170000611700006717000072
:101f9c006d170000731700007a17000080170000ff
:101fac00861700008c17000092170000981700008d
:101fbc009f170000a5170000ab170000b117000019
:101fcc00b7170000bd170000c4170000ca170000a7
:101fdc00d0170000d6170000dc170000e217000035
:101fec00e9170000ef170000f5170000fb170000c1
:101ffc0001180000081800000e180000141800004a
:10200c001a18000020180000261800002d180000d7
:10201c0033180000391800003f1800004518000064
:10202c004b18000052180000581800005e180000f1
:10203c00641800006a18000070180000771800007f
:10204c007d18000083180000891800008f1800000c
:10205c00951800009c180000a2180000a818000099
:10206c00ae180000b4180000ba180000c118000027
:10207c00c7180000cd180000d3180000d9180000b4
:10208c00df180000e6180000ec180000f218000041
:10209c00f8180000fe180000041900000b190000cd
:1020ac0011190000171900001d1900002319000058
:1020bc00291900002f190000361900003c190000e6
:1020cc0042190000481900004e1900005419000074
:1020dc005b19000061190000671900006d19000000
:1020ec00731900007919000080190000861900008e
:1020fc008c19000092190000981900009e1900001c
:10210c00a4190000ab190000b1190000b7190000a8
:10211c00bd190000c3190000c9190000d019000036
:10212c00d6190000dc190000e2190000e8190000c3
:10213c00ee190000f4190000fb190000011a000050
:10214c00071a00000d1a0000131a0000191a0000db
:10215c00201a0000261a00002c1a0000321a000067
:10216c00381a00003e1a0000441a00004b1a0000f6
:10217c00511a0000571a00005d1a0000631a000083
:10218c00691a00006f1a0000761a00007c1a000011
:10219c00821a0000881a00008e1a0000941a00009f
:1021ac009b1a0000a11a0000a71a0000ad1a00002b
:1021bc00b31a0000b91a0000bf1a0000c61a0000ba
:1021cc00cc1a0000d21a0000d81a0000de1a000047
:1021dc00e41a0000ea1a0000f11a0000f71a0000d5
:1021ec00fd1a0000031b0000091b00000f1b000060
:1021fc00151b00001c1b0000221b0000281b0000ec
:10220c002e1b0000341b00003a1b0000401b00007a
:10221c00461b00004d1b0000531b0000591b000007
:10222c005f1b0000651b00006b1b0000711b000096
:10223c00781b00007e1b0000841b00008a1b000022
:10224c00901b0000961b00009c1b0000a31b0000b1
:10225c00a91b0000af1b0000b51b0000bb1b00003e
:10226c00c11b0000c71b0000cd1b0000d41b0000cd
:10227c00da1b0000e01b0000e61b0000ec1b00005a
:10228c00f21b0000f81b0000ff1b0000051c0000e7
:10229c000b1c0000111c0000171c00001d1c000072
:1022ac00231c0000291c0000301c0000361c000000
:1022bc003c1c0000421c0000481c00004e1c00008e
:1022cc00541c00005a1c0000611c0000671c00001c
:1022dc006d1c0000731c0000791c00007f1c0000aa
:1022ec00851c00008b1c0000921c0000981c000038
:1022fc009e1c0000a41c0000aa1c0000b01c0000c6
:10230c00b61c0000bc1c0000c31c0000c91c000053
:10231c00cf1c0000d51c0000db1c0000e11c0000e1
:10232c00e71c0000ed1c0000f41c0000fa1c00006f
:10233c00001d0000061d00000c1d0000121d0000f9
:10234c00181d00001e1d0000251d00002b1d000087
:10235c00311d0000371d00003d1d0000431d000015
:10236c00491d00004f1d0000551d00005c1d0000a4
:10237c00621d0000681d00006e1d0000741d000031
:10238c007a1d0000801d0000861d00008c1d0000c1
:10239c00931d0000991d00009f1d0000a51d00004d
:1023ac00ab1d0000b11d0000b71d0000bd1d0000dd
:1023bc00c31d0000ca1d0000d01d0000d61d00006a
:1023cc00dc1d0000e21d0000e81d0000ee1d0000f9
:1023dc00f41d0000fa1d0000011e0000071e000085
:1023ec000d1e0000131e0000191e00001f1e000011
:1023fc00251e00002b1e0000311e0000381e0000a0
:10240c003e1e0000441e00004a1e0000501e00002c
:10241c00561e00005c1e0000621e0000681e0000bc
:10242c006e1e0000751e00007b1e0000811e000049
:10243c00871e00008d1e0000931e0000991e0000d8
:10244c009f1e0000a51e0000ab1e0000b21e000067
:10245c00b81e0000be1e0000c41e0000ca1e0000f4
:10246c00d01e0000d61e0000dc1e0000e21e000084
:10247c00e81e0000ef1e0000f51e0000fb1e000011
:10248c00011f0000071f00000d1f0000131f00009c
:10249c00191f00001f1f0000251f00002c1f00002b
:1024ac00321f0000381f00003e1f0000441f0000b8
:1024bc004a1f0000501f0000561f00005c1f000048
:1024cc00621f0000681f00006f1f0000751f0000d6
:1024dc007b1f0000811f0000871f00008d1f000064
:1024ec00931f0000991f00009f1f0000a51f0000f4
:1024fc00ab1f0000b21f0000b81f0000be1f000081
:10250c00c41f0000ca1f0000d01f0000d61f00000f
:10251c00dc1f0000e21f0000e81f0000ee1f00009f
:10252c00f41f0000fb1f000001200000072000002a
:10253c000d20000013200000192000001f200000b7
:10254c00252000002b200000312000003720000047
:10255c003d200000442000004a20000050200000d4
:10256c00562000005c200000622000006820000063
:10257c006e200000742000007a20000080200000f3
:10258c00862000008c200000932000009920000081
:10259c009f200000a5200000ab200000b12000000f
:1025ac00b7200000bd200000c3200000c92000009f
:1025bc00cf200000d5200000db200000e12000002f
:1025cc00e8200000ee200000f4200000fa200000bb
:1025dc0000210000062100000c2100001221000047
:1025ec00182100001e210000242100002a210000d7
:1025fc0030210000362100003d2100004321000065
:10260c00492100004f210000552100005b210000f2
:10261c0061210000672100006d2100007321000082
:10262c00792100007f210000852100008b21000012
:10263c0091210000982100009e210000a42100009f
:10264c00aa210000b0210000b6210000bc2100002e
:10265c00c2210000c8210000ce210000d4210000be
:10266c00da210000e0210000e6210000ec2100004e
:10267c00f2210000f8210000ff21000005220000db
:10268c000b22000011220000172200001d22000066
:10269c0023220000292200002f22000035220000f6
:1026ac003b22000041220000472200004d22000086
:1026bc0053220000592200005f2200006522000016
:1026cc006c22000072220000782200007e220000a2
:1026dc00842200008a220000902200009622000032
:1026ec009c220000a2220000a8220000ae220000c2
:1026fc00b4220000ba220000c0220000c622000052
:10270c00cc220000d2220000d8220000de220000e1
:10271c00e4220000eb220000f1220000f72200006e
:10272c00fd22000003230000092300000f230000fa
:10273c00152300001b230000212300002723000089
:10274c002d23000033230000392300003f23000019
:10275c00452300004b2300005123000057230000a9
:10276c005d23000063230000692300006f23000039
:10277c00752300007c2300008223000088230000c6
:10278c008e230000942300009a230000a023000055
:10279c00a6230000ac230000b2230000b8230000e5
:1027ac00be230000c4230000ca230000d023000075
:1027bc00d6230000dc230000e2230000e823000005
:1027cc00ee230000f4230000fa2300000024000094
:1027dc00062400000c240000122400001824000021
:1027ec001e240000242400002a24000030240000b1
:1027fc00362400003d24000043240000492400003e
:10280c004f240000552400005b24000061240000cc
:10281c00672400006d24000073240000792400005c
:10282c007f240000852400008b24000091240000ec
:10283c00972400009d240000a3240000a92400007c
:10284c00af240000b5240000bb240000c12400000c
:10285c00c7240000cd240000d3240000d92400009c
:10286c00df240000e5240000eb240000f12400002c
:10287c00f7240000fd2400000325000009250000ba
:10288c000f250000152500001b2500002125000048
:10289c00272500002d2500003325000039250000d8
:1028ac003f250000452500004b2500005125000068
:1028bc00572500005d2500006325000069250000f8
:1028cc006f250000752500007b2500008125000088
:1028dc00872500008d250000932500009925000018
:1028ec009f250000a5250000ab250000b1250000a8
:1028fc00b7250000bd250000c3250000c925000038
:10290c00cf250000d5250000db250000e1250000c7
:10291c00e7250000ed250000f3250000f925000057
:10292c00ff250000052600000b26000011260000e4
:10293c00172600001d260000232600002926000073
:10294c002f260000352600003b2600004126000003
:10295c00472600004d260000532600005926000093
:10296c005f260000652600006b2600007126000023
:10297c00772600007d2600008326000089260000b3
:10298c008f260000952600009b260000a126000043
:10299c00a7260000ad260000b3260000b9260000d3
:1029ac00bf260000c5260000cb260000d126000063
:1029bc00d7260000dd260000e3260000e9260000f3
:1029cc00ef260000f5260000fb2600000127000082
:1029dc00072700000d27000013270000192700000f
:1029ec001f270000252700002b270000312700009f
:1029fc00372700003d27000043270000492700002f
:102a0c004f270000552700005b27000061270000be
:102a1c00672700006d27000073270000792700004e
:102a2c007f270000852700008b27000091270000de
:102a3c00972700009d270000a3270000a92700006e
:102a4c00af270000b4270000ba270000c027000001
:102a5c00c6270000cc270000d2270000d827000092
:102a6c00de270000e4270000ea270000f027000022
:102a7c00f6270000fc2700000228000008280000b0
:102a8c000e280000142800001a280000202800003e
:102a9c00262800002c2800003228000038280000ce
:102aac003e280000442800004a280000502800005e
:102abc00562800005c2800006228000068280000ee
:102acc006d28000073280000792800007f28000082
:102adc00852800008b280000912800009728000012
:102aec009d280000a3280000a9280000af280000a2
:102afc00b5280000bb280000c1280000c728000032
:102b0c00cd280000d3280000d9280000df280000c1
:102b1c00e5280000eb280000f1280000f628000052
:102b2c00fc28000002290000082900000e290000e2
:102b3c00142900001a290000202900002629000071
:102b4c002c29000032290000382900003e29000001
:102b5c00442900004a290000502900005629000091
:102b6c005c29000062290000682900006d29000022
:102b7c0073290000792900007f29000085290000b5
:102b8c008b29000091290000972900009d29000045
:102b9c00a3290000a9290000af290000b5290000d5
:102bac00bb290000c1290000c7290000cd29000065
:102bbc00d2290000d8290000de290000e4290000f9
:102bcc00ea290000f0290000f6290000fc29000089
:102bdc00022a0000082a00000e2a0000142a000015
:102bec001a2a0000202a0000262a00002b2a0000a6
:102bfc00312a0000372a00003d2a0000432a000039
:102c0c00492a00004f2a0000552a00005b2a0000c8
:102c1c00612a0000672a00006d2a0000732a000058
:102c2c00792a00007e2a0000842a00008a2a0000eb
:102c3c00902a0000962a00009c2a0000a22a00007c
:102c4c00a82a0000ae2a0000b42a0000ba2a00000c
:102c5c00c02a0000c62a0000cc2a0000d12a00009d
:102c6c00d72a0000dd2a0000e32a0000e92a000030
:102c7c00ef2a0000f52a0000fb2a0000012b0000bf
:102c8c00072b00000d2b0000132b0000182b00004d
:102c9c001e2b0000242b00002a2b0000302b0000e0
:102cac00362b00003c2b0000422b0000482b000070
:102cbc004e2b0000542b00005a2b00005f2b000001
:102ccc00652b00006b2b0000712b0000772b000094
:102cdc007d2b0000832b0000892b00008f2b000024
:102cec00952b00009b2b0000a02b0000a62b0000b6
:102cfc00ac2b0000b22b0000b82b0000be2b000048
:102d0c00c42b0000ca2b0000d02b0000d62b0000d7
:102d1c00db2b0000e12b0000e72b0000ed2b00006b
:102d2c00f32b0000f92b0000ff2b0000052c0000fa
:102d3c000b2c0000112c0000162c00001c2c000089
:102d4c00222c0000282c00002e2c0000342c00001b
:102d5c003a2c0000402c0000462c00004c2c0000ab
:102d6c00512c0000572c00005d2c0000632c00003f
:102d7c00692c00006f2c0000752c00007b2c0000cf
:102d8c00812c0000862c00008c2c0000922c000062
:102d9c00982c00009e2c0000a42c0000aa2c0000f3
:102dac00b02c0000b62c0000bb2c0000c12c000085
:102dbc00c72c0000cd2c0000d32c0000d92c000017
:102dcc00df2c0000e52c0000eb2c0000f02c0000a8
:102ddc00f62c0000fc2c0000022d0000082d000039
:102dec000e2d0000142d00001a2d00001f2d0000c8
:102dfc00252d00002b2d0000312d0000372d00005b
:102e0c003d2d0000432d0000492d00004f2d0000ea
:102e1c00542d00005a2d0000602d0000662d00007e
:102e2c006c2d0000722d0000782d00007d2d00000f
:102e3c00832d0000892d00008f2d0000952d0000a2
:102e4c009b2d0000a12d0000a72d0000ac2d000033
:102e5c00b22d0000b82d0000be2d0000c42d0000c6
:102e6c00ca2d0000d02d0000d62d0000db2d000057
:102e7c00e12d0000e72d0000ed2d0000f32d0000ea
:102e8c00f92d0000ff2d0000042e00000a2e00007a
:102e9c00102e0000162e00001c2e0000222e00000a
:102eac00282e00002d2e0000332e0000392e00009d
:102ebc003f2e0000452e00004b2e0000512e00002e
:102ecc00562e00005c2e0000622e0000682e0000c2
:102edc006e2e0000742e00007a2e00007f2e000053
:102eec00852e00008b2e0000912e0000972e0000e6
:102efc009d2e0000a32e0000a82e0000ae2e000078
:102f0c00b42e0000ba2e0000c02e0000c62e000009
:102f1c00cc2e0000d12e0000d72e0000dd2e00009c
:102f2c00e32e0000e92e0000ef2e0000f42e00002e
:102f3c00fa2e0000002f0000062f00000c2f0000be
:102f4c00122f0000182f00001d2f0000232f00004f
:102f5c00292f00002f2f0000352f00003b2f0000e1
:102f6c00402f0000462f00004c2f0000522f000075
:102f7c00582f00005e2f0000632f0000692f000007
:102f8c006f2f0000752f00007b2f0000812f000099
:102f9c00862f00008c2f0000922f0000982f00002d
:102fac009e2f0000a42f0000a92f0000af2f0000bf
:102fbc00b52f0000bb2f0000c12f0000c72f000051
:102fcc00cc2f0000d22f0000d82f0000de2f0000e5
:102fdc00e42f0000ea2f0000ef2f0000f52f000077
:102fec00fb2f000001300000073000000d30000006
:102ffc0012300000183000001e3000002430000099
:10300c002a3000002f300000353000003b3000002b
:10301c0041300000473000004d30000052300000bd
:10302c00583000005e300000643000006a30000050
:10303c006f300000753000007b30000081300000e4
:10304c00873000008d300000923000009830000076
:10305c009e300000a4300000aa300000af30000009
:10306c00b5300000bb300000c1300000c73000009c
:10307c00cc300000d2300000d8300000de30000030
:10308c00e4300000e9300000ef300000f5300000c3
:10309c00fb30000001310000063100000c31000053
:1030ac0012310000183100001e31000024310000e4
:1030bc00293100002f310000353100003b31000078
:1030cc0041310000463100004c310000523100000b
:1030dc00583100005e31000063310000693100009e
:1030ec006f310000753100007a3100008031000032
:1030fc00863100008c3100009231000097310000c5
:10310c009d310000a3310000a9310000af31000057
:10311c00b4310000ba310000c0310000c6310000eb
:10312c00cc310000d1310000d7310000dd3100007e
:10313c00e3310000e8310000ee310000f431000012
:10314c00fa31000000320000053200000b320000a2
:10315c0011320000173200001d3200002232000034
:10316c00283200002e3200003432000039320000c8
:10317c003f320000453200004b320000513200005b
:10318c00563200005c3200006232000068320000ef
:10319c006d32000073320000793200007f32000083
:1031ac00853200008a320000903200009632000016
:1031bc009c320000a1320000a7320000ad320000aa
:1031cc00b3320000b8320000be320000c43200003e
:1031dc00ca320000d0320000d5320000db320000d1
:1031ec00e1320000e7320000ec320000f232000065
:1031fc00f8320000fe3200000333000009330000f7
:10320c000f330000153300001a3300002033000088
:10321c00263300002c33000032330000373300001b
:10322c003d33000043330000493300004e330000af
:10323c00543300005a330000603300006533000043
:10324c006b33000071330000773300007c330000d7
:10325c0082330000883300008e330000933300006b
:10326c00993300009f330000a5330000aa330000ff
:10327c00b0330000b6330000bc330000c133000093
:10328c00c7330000cd330000d3330000d833000027
:10329c00de330000e4330000ea330000ef330000bb
:1032ac00f5330000fb33000000340000063400004e
:1032bc000c34000012340000173400001d340000e0
:1032cc0023340000293400002e3400003434000074
:1032dc003a34000040340000453400004b34000008
:1032ec0051340000573400005c340000623400009c
:1032fc00683400006d340000733400007934000031
:10330c007f340000843400008a34000090340000c4
:10331c00963400009b340000a1340000a734000058
:10332c00ad340000b2340000b8340000be340000ec
:10333c00c3340000c9340000cf340000d534000081
:10334c00da340000e0340000e6340000eb34000016
:10335c00f1340000f7340000fd34000002350000a9
:10336c00083500000e35000014350000193500003a
:10337c001f350000253500002a35000030350000cf
:10338c00363500003c350000413500004735000063
:10339c004d35000052350000583500005e350000f8
:1033ac0063350000693500006f350000753500008d
:1033bc007a35000080350000863500008b35000022
:1033cc0091350000973500009d350000a2350000b6
:1033dc00a8350000ae350000b3350000b93500004b
:1033ec00bf350000c4350000ca350000d0350000e0
:1033fc00d6350000db350000e1350000e735000074
:10340c00ec350000f2350000f8350000fd35000009
:10341c0003360000093600000f3600001436000099
:10342c001a36000020360000253600002b3600002e
:10343c0031360000363600003c36000042360000c3
:10344c00483600004d360000533600005936000057
:10345c005e360000643600006a3600006f360000ed
:10346c00753600007b360000803600008636000082
:10347c008c36000091360000973600009d36000017
:10348c00a2360000a8360000ae360000b4360000ac
:10349c00b9360000bf360000c5360000ca36000041
:1034ac00d0360000d6360000db360000e1360000d6
:1034bc00e7360000ec360000f2360000f83600006b
:1034cc00fd36000003370000093700000e370000fe
:1034dc00143700001a3700001f3700002537000092
:1034ec002b37000030370000363700003c37000027
:1034fc0041370000473700004d37000052370000bd
:10350c00583700005e370000633700006937000051
:10351c006f370000743700007a37000080370000e6
:10352c00853700008b37000091370000963700007c
:10353c009c370000a2370000a7370000ad37000011
:10354c00b3370000b8370000be370000c4370000a6
:10355c00c9370000cf370000d5370000da3700003c
:10356c00e0370000e5370000eb370000f1370000d2
:10357c00f6370000fc370000023800000738000066
:10358c000d38000013380000183800001e380000f9
:10359c0024380000293800002f380000353800008e
:1035ac003a38000040380000463800004b38000024
:1035bc0051380000563800005c38000062380000ba
:1035cc00673800006d380000733800007838000050
:1035dc007e38000084380000893800008f380000e5
:1035ec00943800009a380000a0380000a53800007c
:1035fc00ab380000b1380000b6380000bc38000011
:10360c00c2380000c7380000cd380000d2380000a6
:10361c00d8380000de380000e3380000e93800003c
:10362c00ef380000f4380000fa380000ff380000d2
:10363c00053900000b390000103900001639000064
:10364c001c39000021390000273900002c390000fa
:10365c0032390000383900003d3900004339000090
:10366c00493900004e390000543900005939000026
:10367c005f390000653900006a39000070390000bc
:10368c00753900007b390000813900008639000053
:10369c008c39000092390000973900009d390000e8
:1036ac00a2390000a8390000ae390000b33900007f
:1036bc00b9390000be390000c4390000ca39000015
:1036cc00cf390000d5390000da390000e0390000ac
:1036dc00e6390000eb390000f1390000f639000042
:1036ec00fc390000023a0000073a00000d3a0000d5
:1036fc00123a0000183a00001e3a0000233a00006b
:10370c00293a00002e3a0000343a00003a3a000000
:10371c003f3a0000453a00004a3a0000503a000097
:10372c00563a00005b3a0000613a0000663a00002d
:10373c006c3a0000723a0000773a00007d3a0000c3
:10374c00823a0000883a00008d3a0000933a00005b
:10375c00993a00009e3a0000a43a0000a93a0000f1
:10376c00af3a0000b53a0000ba3a0000c03a000087
:10377c00c53a0000cb3a0000d13a0000d63a00001e
:10378c00dc3a0000e13a0000e73a0000ec3a0000b5
:10379c00f23a0000f83a0000fd3a0000033b00004a
:1037ac00083b00000e3b0000133b0000193b0000df
:1037bc001f3b0000243b00002a3b00002f3b000075
:1037cc00353b00003a3b0000403b0000463b00000c
:1037dc004b3b0000513b0000563b00005c3b0000a3
:1037ec00613b0000673b00006d3b0000723b00003a
:1037fc00783b00007d3b0000833b0000883b0000d1
:10380c008e3b0000933b0000993b00009f3b000067
:10381c00a43b0000aa3b0000af3b0000b53b0000fe
:10382c00ba3b0000c03b0000c53b0000cb3b000096
:10383c00d13b0000d63b0000dc3b0000e13b00002c
:10384c00e73b0000ec3b0000f23b0000f73b0000c4
:10385c00fd3b0000033c0000083c00000e3c000057
:10386c00133c0000193c00001e3c0000243c0000ee
:10387c00293c00002f3c0000353c00003a3c000085
:10388c00403c0000453c00004b3c0000503c00001c
:10389c00563c00005b3c0000613c0000663c0000b4
:1038ac006c3c0000713c0000773c00007d3c00004b
:1038bc00823c0000883c00008d3c0000933c0000e2
:1038cc00983c00009e3c0000a33c0000a93c00007a
:1038dc00ae3c0000b43c0000b93c0000bf3c000012
:1038ec00c43c0000ca3c0000d03c0000d53c0000a9
:1038fc00db3c0000e03c0000e63c0000eb3c000040
:10390c00f13c0000f63c0000fc3c0000013d0000d6
:10391c00073d00000c3d0000123d0000173d00006b
:10392c001d3d0000223d0000283d00002d3d000003
:10393c00333d0000383d00003e3d0000433d00009b
:10394c00493d00004f3d0000543d00005a3d000031
:10395c005f3d0000653d00006a3d0000703d0000c9
:10396c00753d00007b3d0000803d0000863d000061
:10397c008b3d0000913d0000963d00009c3d0000f9
:10398c00a13d0000a73d0000ac3d0000b23d000091
:10399c00b73d0000bd3d0000c23d0000c83d000029
:1039ac00cd3d0000d33d0000d83d0000de3d0000c1
:1039bc00e33d0000e93d0000ee3d0000f43d000059
:1039cc00f93d0000ff3d0000043e00000a3e0000ef
:1039dc000f3e0000153e00001a3e0000203e000085
:1039ec00253e00002b3e0000303e0000363e00001d
:1039fc003b3e0000413e0000463e00004c3e0000b5
:103a0c00513e0000573e00005c3e0000623e00004c
:103a1c00673e00006d3e0000723e0000783e0000e4
:103a2c007d3e0000823e0000883e00008d3e00007e
:103a3c00933e0000983e00009e3e0000a33e000016
:103a4c00a93e0000ae3e0000b43e0000b93e0000ae
:103a5c00bf3e0000c43e0000ca3e0000cf3e000046
:103a6c00d53e0000da3e0000e03e0000e53e0000de
:103a7c00eb3e0000f03e0000f53e0000fb3e000077
:103a8c00003f0000063f00000b3f0000113f00000c
:103a9c00163f00001c3f0000213f0000273f0000a4
:103aac002c3f0000323f0000373f00003d3f00003c
:103abc00423f0000473f00004d3f0000523f0000d6
:103acc00583f00005d3f0000633f0000683f00006e
:103adc006e3f0000733f0000793f00007e3f000006
:103aec00843f0000893f00008e3f0000943f00009f
:103afc00993f00009f3f0000a43f0000aa3f000038
:103b0c00af3f0000b53f0000ba3f0000bf3f0000d0
:103b1c00c53f0000ca3f0000d03f0000d53f000069
:103b2c00db3f0000e03f0000e63f0000eb3f000001
:103b3c00f03f0000f63f0000fb3f0000014000009a
:103b4c00064000000c40000011400000174000002f
:103b5c001c40000021400000274000002c400000c9
:103b6c0032400000374000003d4000004240000061
:103b7c00474000004d4000005240000058400000fb
:103b8c005d40000063400000684000006e40000093
:103b9c0073400000784000007e400000834000002d
:103bac00894000008e4000009440000099400000c5
:103bbc009e400000a4400000a9400000af4000005f
:103bcc00b4400000b9400000bf400000c4400000f9
:103bdc00ca400000cf400000d5400000da40000091
:103bec00df400000e5400000ea400000f04000002b
:103bfc00f5400000fa4000000041000005410000c3
:103c0c000b41000010410000164100001b41000058
:103c1c0020410000264100002b41000031410000f2
:103c2c00364100003b41000041410000464100008c
:103c3c004c41000051410000564100005c41000025
:103c4c0061410000674100006c41000071410000bf
:103c5c00774100007c410000824100008741000058
:103c6c008c41000092410000974100009d410000f2
:103c7c00a2410000a7410000ad410000b24100008c
:103c8c00b8410000bd410000c2410000c841000025
:103c9c00cd410000d2410000d8410000dd410000c0
:103cac00e3410000e8410000ed410000f341000059
:103cbc00f8410000fe4100000342000008420000f1
:103ccc000e42000013420000184200001e42000089
:103cdc0023420000294200002e4200003342000023
:103cec00394200003e4200004442000049420000bc
:103cfc004e42000054420000594200005e42000057
:103d0c0064420000694200006e42000074420000f0
:103d1c00794200007f42000084420000894200008a
:103d2c008f42000094420000994200009f42000024
:103d3c00a4420000aa420000af420000b4420000be
:103d4c00ba420000bf420000c4420000ca42000058
:103d5c00cf420000d4420000da420000df420000f3
:103d6c00e4420000ea420000ef420000f54200008d
:103d7c00fa420000ff420000054300000a43000025
:103d8c000f430000154300001a4300001f430000be
:103d9c00254300002a4300002f4300003543000058
:103dac003a4300003f430000454300004a430000f3
:103dbc0050430000554300005a430000604300008c
:103dcc00654300006a430000704300007543000027
:103ddc007a43000080430000854300008a430000c2
:103dec0090430000954300009a430000a04300005c
:103dfc00a5430000aa430000b0430000b5430000f7
:103e0c00ba430000c0430000c5430000ca43000091
:103e1c00d0430000d5430000da430000e04300002b
:103e2c00e5430000ea430000f0430000f5430000c6
:103e3c00fa43000000440000054400000a4400005e
:103e4c000f440000154400001a4400001f440000f9
:103e5c00254400002a4400002f4400003544000093
:103e6c003a4400003f440000454400004a4400002e
:103e7c004f440000554400005a4400005f440000c9
:103e8c00654400006a4400006f4400007444000064
:103e9c007a4400007f440000844400008a440000ff
:103eac008f440000944400009a4400009f4400009a
:103ebc00a4440000aa440000af440000b444000035
:103ecc00b9440000bf440000c4440000c9440000d1
:103edc00cf440000d4440000d9440000df4400006b
:103eec00e4440000e9440000ee440000f444000007
:103efc00f9440000fe4400000445000009450000a0
:103f0c000e45000013450000194500001e45000039
:103f1c0023450000294500002e45000033450000d4
:103f2c00384500003e450000434500004845000070
:103f3c004e45000053450000584500005d4500000b
:103f4c0063450000684500006d45000073450000a6
:103f5c00784500007d450000824500008845000042
:103f6c008d45000092450000974500009d450000de
:103f7c00a2450000a7450000ad450000b245000079
:103f8c00b7450000bc450000c2450000c745000015
:103f9c00cc450000d1450000d7450000dc450000b1
:103fac00e1450000e6450000ec450000f14500004d
:103fbc00f6450000fc4500000146000006460000e6
:103fcc000b46000011460000164600001b46000080
:103fdc0020460000264600002b460000304600001c
:103fec00354600003b4600004046000045460000b8
:103ffc004a46000050460000554600005a46000054
:10400c005f460000654600006a4600006f460000ef
:10401c00744600007a4600007f460000844600008b
:10402c00894600008f460000944600009946000027
:10403c009e460000a4460000a9460000ae460000c3
:10404c00b3460000b8460000be460000c346000060
:10405c00c8460000cd460000d3460000d8460000fc
:10406c00dd460000e2460000e8460000ed46000098
:10407c00f2460000f7460000fd4600000247000033
:10408c00074700000c4700001147000017470000cd
:10409c001c47000021470000264700002c47000069
:1040ac0031470000364700003b4700004047000006
:1040bc00464700004b4700005047000055470000a2
:1040cc005b47000060470000654700006a4700003e
:1040dc006f470000754700007a4700007f470000db
:1040ec0084470000894700008f4700009447000078
:1040fc00994700009e470000a3470000a947000015
:10410c00ae470000b3470000b8470000bd470000b1
:10411c00c3470000c8470000cd470000d24700004d
:10412c00d8470000dd470000e2470000e7470000e9
:10413c00ec470000f1470000f7470000fc47000087
:10414c0001480000064800000b4800001148000020
:10415c00164800001b4800002048000025480000bd
:10416c002b48000030480000354800003a48000059
:10417c003f480000454800004a4800004f480000f6
:10418c0054480000594800005e4800006448000094
:10419c00694800006e480000734800007848000031
:1041ac007e48000083480000884800008d480000cd
:1041bc0092480000974800009d480000a24800006b
:1041cc00a7480000ac480000b1480000b648000009
:1041dc00bc480000c1480000c6480000cb480000a5
:1041ec00d0480000d5480000db480000e048000043
:1041fc00e5480000ea480000ef480000f4480000e1
:10420c00fa480000ff48000004490000094900007a
:10421c000e49000013490000194900001e49000016
:10422c0023490000284900002d49000032490000b4
:10423c00384900003d490000424900004749000050
:10424c004c49000051490000564900005c490000ef
:10425c0061490000664900006b490000704900008c
:10426c00754900007a49000080490000854900002a
:10427c008a4900008f4900009449000099490000c8
:10428c009e490000a4490000a9490000ae49000065
:10429c00b3490000b8490000bd490000c249000004
:1042ac00c8490000cd490000d2490000d7490000a0
:1042bc00dc490000e1490000e6490000eb49000040
:1042cc00f1490000f6490000fb490000004a0000db
:1042dc00054a00000a4a00000f4a0000144a000078
:1042ec001a4a00001f4a0000244a0000294a000014
:1042fc002e4a0000334a0000384a00003d4a0000b4
:10430c00434a0000484a00004d4a0000524a00004f
:10431c00574a00005c4a0000614a0000664a0000ef
:10432c006b4a0000714a0000764a00007b4a00008c
:10433c00804a0000854a00008a4a00008f4a00002b
:10434c00944a0000994a00009f4a0000a44a0000c9
:10435c00a94a0000ae4a0000b34a0000b84a000067
:10436c00bd4a0000c24a0000c74a0000cc4a000007
:10437c00d24a0000d74a0000dc4a0000e14a0000a3
:10438c00e64a0000eb4a0000f04a0000f54a000043
:10439c00fa4a0000ff4a0000054b00000a4b0000df
:1043ac000f4b0000144b0000194b00001e4b00007b
:1043bc00234b0000284b00002d4b0000324b00001b
:1043cc00374b00003c4b0000424b0000474b0000b9
:1043dc004c4b0000514b0000564b00005b4b000057
:1043ec00604b0000654b00006a4b00006f4b0000f7
:1043fc00744b0000794b00007e4b0000844b000096
:10440c00894b00008e4b0000934b0000984b000032
:10441c009d4b0000a24b0000a74b0000ac4b0000d2
:10442c00b14b0000b64b0000bb4b0000c04b000072
:10443c00c54b0000cb4b0000d04b0000d54b00000f
:10444c00da4b0000df4b0000e44b0000e94b0000ae
:10445c00ee4b0000f34b0000f84b0000fd4b00004e
:10446c00024c0000074c00000c4c0000114c0000ea
:10447c00164c00001b4c0000204c0000264c000089
:10448c002b4c0000304c0000354c00003a4c000026
:10449c003f4c0000444c0000494c00004e4c0000c6
:1044ac00534c0000584c00005d4c0000624c000066
:1044bc00674c00006c4c0000714c0000764c000006
:1044cc007b4c0000804c0000854c00008a4c0000a6
:1044dc008f4c0000944c00009a4c00009f4c000044
:1044ec00a44c0000a94c0000ae4c0000b34c0000e2
:1044fc00b84c0000bd4c0000c24c0000c74c000082
:10450c00cc4c0000d14c0000d64c0000db4c000021
:10451c00e04c0000e54c0000ea4c0000ef4c0000c1
:10452c00f44c0000f94c0000fe4c0000034d000060
:10453c00084d00000d4d0000124d0000174d0000fd
:10454c001c4d0000214d0000264d00002b4d00009d
:10455c00304d0000354d00003a4d00003f4d00003d
:10456c00444d0000494d00004e4d0000534d0000dd
:10457c00584d00005d4d0000624d0000674d00007d
:10458c006c4d0000714d0000764d00007b4d00001d
:10459c00804d0000854d00008a4d00008f4d0000bd
:1045ac00944d0000994d00009e4d0000a34d00005d
:1045bc00a84d0000ad4d0000b24d0000b74d0000fd
:1045cc00bc4d0000c14d0000c64d0000cb4d00009d
:1045dc00d04d0000d54d0000da4d0000df4d00003d
:1045ec00e44d0000e94d0000ee4d0000f34d0000dd
:1045fc00f84d0000fd4d0000024e0000074e00007b
:10460c000c4e0000114e0000164e00001b4e000018
:10461c00204e0000254e00002a4e00002f4e0000b8
:10462c00344e0000394e00003e4e0000434e000058
:10463c00484e00004d4e0000524e0000574e0000f8
:10464c005c4e0000614e0000664e00006a4e000099
:10465c006f4e0000744e0000794e00007e4e00003c
:10466c00834e0000884e00008d4e0000924e0000dc
:10467c00974e00009c4e0000a14e0000a64e00007c
:10468c00ab4e0000b04e0000b54e0000ba4e00001c
:10469c00bf4e0000c44e0000c94e0000ce4e0000bc
:1046ac00d34e0000d84e0000dd4e0000e14e00005d
:1046bc00e64e0000eb4e0000f04e0000f54e000000
:1046cc00fa4e0000ff4e0000044f0000094f00009e
:1046dc000e4f0000134f0000184f00001d4f00003c
:1046ec00224f0000274f00002c4f0000314f0000dc
:1046fc00354f00003a4f00003f4f0000444f000080
:10470c00494f00004e4f0000534f0000584f00001f
:10471c005d4f0000624f0000674f00006c4f0000bf
:10472c00714f0000764f00007a4f00007f4f000061
:10473c00844f0000894f00008e4f0000934f000003
:10474c00984f00009d4f0000a24f0000a74f0000a3
:10475c00ac4f0000b14f0000b64f0000ba4f000044
:10476c00bf4f0000c44f0000c94f0000ce4f0000e7
:10477c00d34f0000d84f0000dd4f0000e24f000087
:10478c00e74f0000ec4f0000f04f0000f54f000029
:10479c00fa4f0000ff4f00000450000009500000c9
:1047ac000e50000013500000185000001d50000067
:1047bc0021500000265000002b500000305000000b
:1047cc00355000003a5000003f50000044500000ab
:1047dc00495000004e50000052500000575000004d
:1047ec005c50000061500000665000006b500000ef
:1047fc0070500000755000007a5000007e50000090
:10480c0083500000885000008d5000009250000032
:10481c00975000009c500000a1500000a5500000d3
:10482c00aa500000af500000b4500000b950000076
:10483c00be500000c3500000c8500000cd50000016
:10484c00d1500000d6500000db500000e0500000ba
:10485c00e5500000ea500000ef500000f35000005b
:10486c00f8500000fd5000000251000007510000fc
:10487c000c51000011510000165100001a5100009b
:10488c001f51000024510000295100002e5100003e
:10489c0033510000385100003c51000041510000e0
:1048ac00465100004b510000505100005551000082
:1048bc00595100005e510000635100006851000026
:1048cc006d51000072510000775100007b510000c7
:1048dc0080510000855100008a5100008f5100006a
:1048ec0094510000985100009d510000a25100000d
:1048fc00a7510000ac510000b1510000b6510000ae
:10490c00ba510000bf510000c4510000c951000051
:10491c00ce510000d3510000d7510000dc510000f3
:10492c00e1510000e6510000eb510000ef51000096
:10493c00f4510000f9510000fe5100000352000038
:10494c00085200000c5200001152000016520000d8
:10495c001b5200002052000025520000295200007a
:10496c002e52000033520000385200003d5200001d
:10497c0041520000465200004b52000050520000c1
:10498c00555200005a5200005e5200006352000063
:10499c00685200006d520000725200007652000006
:1049ac007b52000080520000855200008a520000a9
:1049bc008e52000093520000985200009d5200004d
:1049cc00a2520000a6520000ab520000b0520000f0
:1049dc00b5520000ba520000be520000c352000093
:1049ec00c8520000cd520000d2520000d652000036
:1049fc00db520000e0520000e5520000e9520000da
:104a0c00ee520000f3520000f8520000fd5200007c
:104a1c0001530000065300000b530000105300001c
:104a2c0014530000195300001e53000023530000c0
:104a3c00285300002c530000315300003653000063
:104a4c003b5300003f530000445300004953000007
:104a5c004e53000053530000575300005c530000aa
:104a6c0061530000665300006a5300006f5300004e
:104a7c0074530000795300007d53000082530000f2
:104a8c00875300008c530000905300009553000096
:104a9c009a5300009f530000a4530000a853000039
:104aac00ad530000b2530000b7530000bb530000dd
:104abc00c0530000c5530000ca530000ce53000081
:104acc00d3530000d8530000dd530000e153000025
:104adc00e6530000eb530000f0530000f4530000c9
:104aec00f9530000fe53000002540000075400006c
:104afc000c54000011540000155400001a5400000e
:104b0c001f54000024540000285400002d540000b1
:104b1c0032540000375400003b5400004054000055
:104b2c00455400004a5400004e54000053540000f9
:104b3c00585400005c54000061540000665400009e
:104b4c006b5400006f540000745400007954000042
:104b5c007d54000082540000875400008c540000e7
:104b6c0090540000955400009a5400009e5400008c
:104b7c00a3540000a8540000ad540000b154000030
:104b8c00b6540000bb540000bf540000c4540000d5
:104b9c00c9540000ce540000d2540000d754000079
:104bac00dc540000e0540000e5540000ea5400001e
:104bbc00ef540000f3540000f8540000fd540000c2
:104bcc0001550000065500000b5500000f55000064
:104bdc0014550000195500001d5500002255000009
:104bec00275500002c5500003055000035550000ad
:104bfc003a5500003e550000435500004855000052
:104c0c004c55000051550000565500005a550000f7
:104c1c005f55000064550000685500006d5500009c
:104c2c0072550000765500007b5500008055000041
:104c3c0085550000895500008e55000093550000e5
:104c4c00975500009c550000a1550000a55500008b
:104c5c00aa550000af550000b3550000b855000030
:104c6c00bd550000c1550000c6550000cb550000d5
:104c7c00cf550000d4550000d9550000dd5500007b
:104c8c00e2550000e7550000eb550000f055000020
:104c9c00f4550000f9550000fe55000002560000c6
:104cac00075600000c560000105600001556000068
:104cbc001a5600001e56000023560000285600000d
:104ccc002c56000031560000365600003a560000b3
:104cdc003f56000043560000485600004d56000059
:104cec0051560000565600005b5600005f560000ff
:104cfc0064560000695600006d56000072560000a4
:104d0c00775600007b560000805600008456000049
:104d1c00895600008e5600009256000097560000ef
:104d2c009c560000a0560000a5560000a956000095
:104d3c00ae560000b3560000b7560000bc5600003b
:104d4c00c1560000c5560000ca560000ce560000e1
:104d5c00d3560000d8560000dc560000e156000087
:104d6c00e5560000ea560000ef560000f35600002e
:104d7c00f8560000fd5600000157000006570000d1
:104d8c000a5700000f570000145700001857000076
:104d9c001d57000021570000265700002b5700001c
:104dac002f57000034570000385700003d570000c3
:104dbc0042570000465700004b5700004f57000069
:104dcc0054570000595700005d570000625700000f
:104ddc00665700006b5700006f57000074570000b7
:104dec00795700007d57000082570000865700005d
:104dfc008b57000090570000945700009957000003
:104e0c009d570000a2570000a6570000ab570000aa
:104e1c00b0570000b4570000b9570000bd57000050
:104e2c00c2570000c7570000cb570000d0570000f6
:104e3c00d4570000d9570000dd570000e25700009e
:104e4c00e7570000eb570000f0570000f457000044
:104e5c00f9570000fd5700000258000006580000ea
:104e6c000b5800001058000014580000195800008e
:104e7c001d58000022580000265800002b58000036
:104e8c002f58000034580000395800003d580000dd
:104e9c0042580000465800004b5800004f58000084
:104eac0054580000585800005d580000625800002b
:104ebc00665800006b5800006f58000074580000d2
:104ecc00785800007d58000081580000865800007a
:104edc008a5800008f580000935800009858000022
:104eec009d580000a1580000a6580000aa580000c8
:104efc00af580000b3580000b8580000bc58000070
:104f0c00c1580000c5580000ca580000ce58000017
:104f1c00d3580000d7580000dc580000e0580000bf
:104f2c00e5580000e9580000ee580000f358000066
:104f3c00f7580000fc58000000590000055900000b
:104f4c00095900000e5900001259000017590000b1
:104f5c001b59000020590000245900002959000059
:104f6c002d59000032590000365900003b59000001
:104f7c003f59000044590000485900004d590000a9
:104f8c0051590000565900005a5900005f59000051
:104f9c0063590000685900006c59000071590000f9
:104fac00755900007a5900007e59000083590000a1
:104fbc00875900008c590000905900009559000049
:104fcc00995900009e590000a2590000a7590000f1
:104fdc00ab590000b0590000b4590000b85900009a
:104fec00bd590000c1590000c6590000ca59000043
:104ffc00cf590000d3590000d8590000dc590000eb
:10500c00e1590000e5590000ea590000ee59000092
:10501c00f3590000f7590000fc590000005a000039
:10502c00055a0000095a00000d5a0000125a0000df
:10503c00165a00001b5a00001f5a0000245a000088
:10504c00285a00002d5a0000315a0000365a000030
:10505c003a5a00003f5a0000435a0000475a0000d9
:10506c004c5a0000505a0000555a0000595a000082
:10507c005e5a0000625a0000675a00006b5a00002a
:10508c006f5a0000745a0000785a00007d5a0000d4
:10509c00815a0000865a00008a5a00008f5a00007c
:1050ac00935a0000975a00009c5a0000a05a000026
:1050bc00a55a0000a95a0000ae5a0000b25a0000ce
:1050cc00b75a0000bb5a0000bf5a0000c45a000077
:1050dc00c85a0000cd5a0000d15a0000d65a000020
:1050ec00da5a0000de5a0000e35a0000e75a0000ca
:1050fc00ec5a0000f05a0000f45a0000f95a000073
:10510c00fd5a0000025b0000065b00000b5b000018
:10511c000f5b0000135b0000185b00001c5b0000c1
:10512c00215b0000255b0000295b00002e5b00006a
:10513c00325b0000375b00003b5b0000405b000013
:10514c00445b0000485b00004d5b0000515b0000bd
:10515c00565b00005a5b00005e5b0000635b000066
:10516c00675b00006c5b0000705b0000745b000010
:10517c00795b00007d5b0000825b0000865b0000b9
:10518c008a5b00008f5b0000935b0000975b000064
:10519c009c5b0000a05b0000a55b0000a95b00000d
:1051ac00ad5b0000b25b0000b65b0000bb5b0000b7
:1051bc00bf5b0000c35b0000c85b0000cc5b000061
:1051cc00d05b0000d55b0000d95b0000de5b00000b
:1051dc00e25b0000e65b0000eb5b0000ef5b0000b5
:1051ec00f35b0000f85b0000fc5b0000015c00005e
:1051fc00055c0000095c00000e5c0000125c000005
:10520c00165c00001b5c00001f5c0000235c0000af
:10521c00285c00002c5c0000315c0000355c000058
:10522c00395c00003e5c0000425c0000465c000003
:10523c004b5c00004f5c0000535c0000585c0000ad
:10524c005c5c0000605c0000655c0000695c000058
:10525c006d5c0000725c0000765c00007b5c000002
:10526c007f5c0000835c0000885c00008c5c0000ac
:10527c00905c0000955c0000995c00009d5c000057
:10528c00a25c0000a65c0000aa5c0000af5c000001
:10529c00b35c0000b75c0000bc5c0000c05c0000ac
:1052ac00c45c0000c95c0000cd5c0000d15c000057
:1052bc00d65c0000da5c0000de5c0000e35c000001
:1052cc00e75c0000eb5c0000ef5c0000f45c0000ad
:1052dc00f85c0000fc5c0000015d0000055d000056
:1052ec00095d00000e5d0000125d0000165d0000ff
:1052fc001b5d00001f5d0000235d0000285d0000a9
:10530c002c5d0000305d0000345d0000395d000054
:10531c003d5d0000415d0000465d00004a5d0000ff
:10532c004e5d0000535d0000575d00005b5d0000aa
:10533c005f5d0000645d0000685d00006c5d000056
:10534c00715d0000755d0000795d00007e5d000000
:10535c00825d0000865d00008a5d00008f5d0000ac
:10536c00935d0000975d00009c5d0000a05d000057
:10537c00a45d0000a85d0000ad5d0000b15d000003
:10538c00b55d0000ba5d0000be5d0000c25d0000ae
:10539c00c65d0000cb5d0000cf5d0000d35d00005a
:1053ac00d75d0000dc5d0000e05d0000e45d000006
:1053bc00e95d0000ed5d0000f15d0000f55d0000b1
:1053cc00fa5d0000fe5d0000025e0000065e00005b
:1053dc000b5e00000f5e0000135e0000175e000005
:1053ec001c5e0000205e0000245e0000295e0000b0
:1053fc002d5e0000315e0000355e00003a5e00005c
:10540c003e5e0000425e0000465e00004b5e000007
:10541c004f5e0000535e0000575e00005c5e0000b3
:10542c00605e0000645e0000685e00006c5e000060
:10543c00715e0000755e0000795e00007d5e00000c
:10544c00825e0000865e00008a5e00008e5e0000b8
:10545c00935e0000975e00009b5e00009f5e000064
:10546c00a45e0000a85e0000ac5e0000b05e000010
:10547c00b45e0000b95e0000bd5e0000c15e0000bd
:10548c00c55e0000ca5e0000ce5e0000d25e000069
:10549c00d65e0000da5e0000df5e0000e35e000016
:1054ac00e75e0000eb5e0000f05e0000f45e0000c2
:1054bc00f85e0000fc5e0000005f0000055f00006d
:1054cc00095f00000d5f0000115f0000155f000018
:1054dc001a5f00001e5f0000225f0000265f0000c4
:1054ec002a5f00002f5f0000335f0000375f000071
:1054fc003b5f00003f5f0000445f0000485f00001e
:10550c004c5f0000505f0000545f0000595f0000ca
:10551c005d5f0000615f0000655f0000695f000077
:10552c006e5f0000725f0000765f00007a5f000023
:10553c007e5f0000825f0000875f00008b5f0000d1
:10554c008f5f0000935f0000975f00009c5f00007e
:10555c00a05f0000a45f0000a85f0000ac5f00002b
:10556c00b05f0000b55f0000b95f0000bd5f0000d8
:10557c00c15f0000c55f0000c95f0000ce5f000086
:10558c00d25f0000d65f0000da5f0000de5f000033
:10559c00e25f0000e75f0000eb5f0000ef5f0000e0
:1055ac00f35f0000f75f0000fb5f0000006000008d
:1055bc0004600000086000000c6000001060000037
:1055cc0014600000186000001d60000021600000e5
:1055dc0025600000296000002d6000003160000093
:1055ec00366000003a6000003e600000426000003f
:1055fc00466000004a6000004e60000052600000ef
:10560c00576000005b6000005f600000636000009a
:10561c00676000006b6000006f6000007460000049
:10562c00786000007c6000008060000084600000f6
:10563c00886000008c6000009060000095600000a5
:10564c00996000009d600000a1600000a560000052
:10565c00a9600000ad600000b1600000b660000001
:10566c00ba600000be600000c2600000c6600000ae
:10567c00ca600000ce600000d2600000d66000005e
:10568c00db600000df600000e3600000e76000000a
:10569c00eb600000ef600000f3600000f7600000ba
:1056ac00fb600000ff600000046100000861000066
:1056bc000c61000010610000146100001861000012
:1056cc001c610000206100002461000028610000c2
:1056dc002d6100003161000035610000396100006e
:1056ec003d6100004161000045610000496100001e
:1056fc004d610000516100005561000059610000ce
:10570c005e61000062610000666100006a61000079
:10571c006e61000072610000766100007a61000029
:10572c007e61000082610000866100008a610000d9
:10573c008e61000092610000976100009b61000087
:10574c009f610000a3610000a7610000ab61000035
:10575c00af610000b3610000b7610000bb610000e5
:10576c00bf610000c3610000c7610000cb61000095
:10577c00cf610000d3610000d7610000db61000045
:10578c00e0610000e4610000e8610000ec610000f1
:10579c00f0610000f4610000f8610000fc610000a1
:1057ac000062000004620000086200000c6200004d
:1057bc001062000014620000186200001c620000fd
:1057cc002062000024620000286200002c620000ad
:1057dc003062000034620000386200003c6200005d
:1057ec004062000044620000496200004d6200000b
:1057fc005162000055620000596200005d620000b9
:10580c006162000065620000696200006d62000068
:10581c007162000075620000796200007d62000018
:10582c008162000085620000896200008d620000c8
:10583c009162000095620000996200009d62000078
:10584c00a1620000a5620000a9620000ad62000028
:10585c00b1620000b5620000b9620000bd620000d8
:10586c00c1620000c5620000c9620000cd62000088
:10587c00d1620000d5620000d9620000dd62000038
:10588c00e1620000e5620000e9620000ed620000e8
:10589c00f1620000f5620000f9620000fd62000098
:1058ac000163000005630000096300000d63000044
:1058bc001163000015630000196300001d630000f4
:1058cc002063000024630000286300002c630000a8
:1058dc003063000034630000386300003c63000058
:1058ec004063000044630000486300004c63000008
:1058fc005063000054630000586300005c630000b8
:10590c006063000064630000686300006c63000067
:10591c007063000074630000786300007c63000017
:10592c008063000084630000886300008b630000c8
:10593c008f63000093630000976300009b6300007b
:10594c009f630000a3630000a7630000ab6300002b
:10595c00af630000b3630000b7630000bb630000db
:10596c00bf630000c3630000c7630000cb6300008b
:10597c00ce630000d2630000d6630000da6300003f
:10598c00de630000e2630000e6630000ea630000ef
:10599c00ee630000f2630000f6630000fa6300009f
:1059ac00fe6300000264000005640000096400004e
:1059bc000d640000116400001564000019640000ff
:1059cc001d640000216400002564000029640000af
:1059dc002d64000031640000346400003864000061
:1059ec003c64000040640000446400004864000013
:1059fc004c640000506400005464000058640000c3
:105a0c005b6400005f640000636400006764000076
:105a1c006b6400006f640000736400007764000026
:105a2c007b6400007f6400008264000086640000d8
:105a3c008a6400008e64000092640000966400008a
:105a4c009a6400009e640000a2640000a56400003b
:105a5c00a9640000ad640000b1640000b5640000ee
:105a6c00b9640000bd640000c1640000c46400009f
:105a7c00c8640000cc640000d0640000d464000052
:105a8c00d8640000dc640000e0640000e364000003
